{
  "dapp_address": "0x9A9f2CCfdE556A7E9Ff0848998Aa4a0CFD8863AE",
  "_format": "hh-sol-artifact-1",
  "contractName": "SocialActivation",
  "sourceName": "contracts/SocialActivation.sol",
  "abi": [
    {
      "inputs": [],
      "stateMutability": "nonpayable",
      "type": "constructor"
    },
    {
      "inputs": [],
      "name": "MAX_REGION",
      "outputs": [
        {
          "internalType": "uint256",
          "name": "",
          "type": "uint256"
        }
      ],
      "stateMutability": "view",
      "type": "function"
    },
    {
      "inputs": [],
      "name": "MAX_TIME",
      "outputs": [
        {
          "internalType": "uint256",
          "name": "",
          "type": "uint256"
        }
      ],
      "stateMutability": "view",
      "type": "function"
    },
    {
      "inputs": [],
      "name": "NUM_DISASTER_TYPES",
      "outputs": [
        {
          "internalType": "uint8",
          "name": "",
          "type": "uint8"
        }
      ],
      "stateMutability": "view",
      "type": "function"
    },
    {
      "inputs": [],
      "name": "THRESHOLD",
      "outputs": [
        {
          "internalType": "uint256",
          "name": "",
          "type": "uint256"
        }
      ],
      "stateMutability": "view",
      "type": "function"
    },
    {
      "inputs": [],
      "name": "TIMEOUT",
      "outputs": [
        {
          "internalType": "uint256",
          "name": "",
          "type": "uint256"
        }
      ],
      "stateMutability": "view",
      "type": "function"
    },
    {
      "inputs": [
        {
          "internalType": "address",
          "name": "_new_address",
          "type": "address"
        }
      ],
      "name": "_authorise_user",
      "outputs": [],
      "stateMutability": "nonpayable",
      "type": "function"
    },
    {
      "inputs": [
        {
          "internalType": "uint256",
          "name": "_region",
          "type": "uint256"
        },
        {
          "internalType": "uint256",
          "name": "_disaster_type",
          "type": "uint256"
        }
      ],
      "name": "_check_active_notification",
      "outputs": [
        {
          "internalType": "bool",
          "name": "active",
          "type": "bool"
        }
      ],
      "stateMutability": "view",
      "type": "function"
    },
    {
      "inputs": [
        {
          "internalType": "uint256",
          "name": "_region",
          "type": "uint256"
        },
        {
          "internalType": "uint256",
          "name": "_disaster_type",
          "type": "uint256"
        }
      ],
      "name": "_confirm_consensus",
      "outputs": [],
      "stateMutability": "nonpayable",
      "type": "function"
    },
    {
      "inputs": [
        {
          "internalType": "uint256",
          "name": "_region",
          "type": "uint256"
        },
        {
          "internalType": "uint256",
          "name": "_disaster_type",
          "type": "uint256"
        }
      ],
      "name": "_count_region",
      "outputs": [
        {
          "internalType": "uint256",
          "name": "count",
          "type": "uint256"
        }
      ],
      "stateMutability": "view",
      "type": "function"
    },
    {
      "inputs": [
        {
          "internalType": "address",
          "name": "_address_to_update",
          "type": "address"
        }
      ],
      "name": "_get_rep",
      "outputs": [
        {
          "internalType": "uint256",
          "name": "rep",
          "type": "uint256"
        }
      ],
      "stateMutability": "view",
      "type": "function"
    },
    {
      "inputs": [
        {
          "internalType": "uint256[]",
          "name": "_regions",
          "type": "uint256[]"
        },
        {
          "internalType": "uint256",
          "name": "_disaster_type",
          "type": "uint256"
        }
      ],
      "name": "_new_notification",
      "outputs": [],
      "stateMutability": "nonpayable",
      "type": "function"
    },
    {
      "inputs": [
        {
          "internalType": "uint256",
          "name": "",
          "type": "uint256"
        }
      ],
      "name": "disasters_confirmed",
      "outputs": [
        {
          "internalType": "uint256",
          "name": "disaster_type",
          "type": "uint256"
        },
        {
          "internalType": "uint256",
          "name": "region",
          "type": "uint256"
        },
        {
          "internalType": "uint256",
          "name": "time_of_first_notification",
          "type": "uint256"
        },
        {
          "internalType": "uint256",
          "name": "time_of_consensus",
          "type": "uint256"
        }
      ],
      "stateMutability": "view",
      "type": "function"
    },
    {
      "inputs": [
        {
          "internalType": "address",
          "name": "",
          "type": "address"
        }
      ],
      "name": "get_authorised",
      "outputs": [
        {
          "internalType": "bool",
          "name": "",
          "type": "bool"
        }
      ],
      "stateMutability": "view",
      "type": "function"
    },
    {
      "inputs": [
        {
          "internalType": "address",
          "name": "",
          "type": "address"
        }
      ],
      "name": "num_correct_notifications",
      "outputs": [
        {
          "internalType": "uint256",
          "name": "",
          "type": "uint256"
        }
      ],
      "stateMutability": "view",
      "type": "function"
    },
    {
      "inputs": [],
      "name": "num_disasters",
      "outputs": [
        {
          "internalType": "uint256",
          "name": "",
          "type": "uint256"
        }
      ],
      "stateMutability": "view",
      "type": "function"
    },
    {
      "inputs": [
        {
          "internalType": "address",
          "name": "",
          "type": "address"
        }
      ],
      "name": "num_notifications",
      "outputs": [
        {
          "internalType": "uint256",
          "name": "",
          "type": "uint256"
        }
      ],
      "stateMutability": "view",
      "type": "function"
    },
    {
      "inputs": [
        {
          "internalType": "uint256",
          "name": "",
          "type": "uint256"
        },
        {
          "internalType": "uint256",
          "name": "",
          "type": "uint256"
        },
        {
          "internalType": "uint256",
          "name": "",
          "type": "uint256"
        }
      ],
      "name": "region_to_type_count",
      "outputs": [
        {
          "internalType": "address",
          "name": "creator",
          "type": "address"
        },
        {
          "internalType": "uint256",
          "name": "times_out",
          "type": "uint256"
        }
      ],
      "stateMutability": "view",
      "type": "function"
    },
    {
      "inputs": [
        {
          "internalType": "address",
          "name": "",
          "type": "address"
        },
        {
          "internalType": "uint256",
          "name": "",
          "type": "uint256"
        },
        {
          "internalType": "uint256",
          "name": "",
          "type": "uint256"
        }
      ],
      "name": "user_to_timestamp",
      "outputs": [
        {
          "internalType": "uint256",
          "name": "",
          "type": "uint256"
        }
      ],
      "stateMutability": "view",
      "type": "function"
    }
  ],
  "bytecode": "0x608060405260036000556103e860015561fd206002556005600360006101000a81548160ff021916908360ff1602179055506509184e729fff60055534801561004757600080fd5b506001600660003373ffffffffffffffffffffffffffffffffffffffff1673ffffffffffffffffffffffffffffffffffffffff16815260200190815260200160002060006101000a81548160ff0219169083151502179055506001600760003373ffffffffffffffffffffffffffffffffffffffff1673ffffffffffffffffffffffffffffffffffffffff168152602001908152602001600020819055506001600860003373ffffffffffffffffffffffffffffffffffffffff1673ffffffffffffffffffffffffffffffffffffffff168152602001908152602001600020819055506118f1806101396000396000f3fe608060405234801561001057600080fd5b50600436106101165760003560e01c80639c8e3d63116100a2578063d0562bc411610071578063d0562bc414610321578063e7f41c6f14610351578063f56f48f21461036d578063f5a1ad281461038b578063fc580e4a146103a757610116565b80639c8e3d6314610287578063a17ab5f5146102b7578063af118728146102e7578063cc09253f1461030557610116565b806348428db6116100e957806348428db6146101ba578063681b8268146101ea5780636b923cd81461021b578063785ffb371461023957806393b48ead1461025757610116565b8063018771e41461011b57806305bac2ed1461014e578063269499841461017e57806332d665b91461019c575b600080fd5b6101356004803603810190610130919061103b565b6103d7565b6040516101459493929190611077565b60405180910390f35b6101686004803603810190610163919061111a565b610407565b6040516101759190611162565b60405180910390f35b610186610427565b604051610193919061117d565b60405180910390f35b6101a461042d565b6040516101b1919061117d565b60405180910390f35b6101d460048036038101906101cf9190611198565b610433565b6040516101e1919061117d565b60405180910390f35b61020460048036038101906101ff91906111d8565b610594565b60405161021292919061123a565b60405180910390f35b610223610602565b604051610230919061127f565b60405180910390f35b610241610615565b60405161024e919061117d565b60405180910390f35b610271600480360381019061026c919061111a565b61061b565b60405161027e919061117d565b60405180910390f35b6102a1600480360381019061029c919061111a565b610633565b6040516102ae919061117d565b60405180910390f35b6102d160048036038101906102cc9190611198565b61067c565b6040516102de9190611162565b60405180910390f35b6102ef6106ea565b6040516102fc919061117d565b60405180910390f35b61031f600480360381019061031a919061111a565b6106f0565b005b61033b6004803603810190610336919061129a565b610868565b604051610348919061117d565b60405180910390f35b61036b60048036038101906103669190611446565b61089a565b005b610375610c44565b604051610382919061117d565b60405180910390f35b6103a560048036038101906103a09190611198565b610c4a565b005b6103c160048036038101906103bc919061111a565b610f6f565b6040516103ce919061117d565b60405180910390f35b600b6020528060005260406000206000915090508060000154908060010154908060020154908060030154905084565b60066020528060005260406000206000915054906101000a900460ff1681565b60055481565b60025481565b600080600960008581526020019081526020016000206000848152602001908152602001600020805480602002602001604051908101604052809291908181526020016000905b8282101561050c57838290600052602060002090600202016040518060400160405290816000820160009054906101000a900473ffffffffffffffffffffffffffffffffffffffff1673ffffffffffffffffffffffffffffffffffffffff1673ffffffffffffffffffffffffffffffffffffffff1681526020016001820154815250508152602001906001019061047a565b50505050905060005b815181101561058c5742828281518110610532576105316114a2565b5b60200260200101516020015111156105795761056b82828151811061055a576105596114a2565b5b602002602001015160000151610633565b836105769190611500565b92505b808061058490611534565b915050610515565b505092915050565b600960205282600052604060002060205281600052604060002081815481106105bc57600080fd5b906000526020600020906002020160009250925050508060000160009054906101000a900473ffffffffffffffffffffffffffffffffffffffff16908060010154905082565b600360009054906101000a900460ff1681565b60005481565b60076020528060005260406000206000915090505481565b6000600860008373ffffffffffffffffffffffffffffffffffffffff1673ffffffffffffffffffffffffffffffffffffffff168152602001908152602001600020549050919050565b600042600a60003373ffffffffffffffffffffffffffffffffffffffff1673ffffffffffffffffffffffffffffffffffffffff168152602001908152602001600020600085815260200190815260200160002060008481526020019081526020016000205410905092915050565b60045481565b60011515600660003373ffffffffffffffffffffffffffffffffffffffff1673ffffffffffffffffffffffffffffffffffffffff16815260200190815260200160002060009054906101000a900460ff16151514610783576040517f08c379a000000000000000000000000000000000000000000000000000000000815260040161077a906115ff565b60405180910390fd5b6001600660008373ffffffffffffffffffffffffffffffffffffffff1673ffffffffffffffffffffffffffffffffffffffff16815260200190815260200160002060006101000a81548160ff0219169083151502179055506001600760008373ffffffffffffffffffffffffffffffffffffffff1673ffffffffffffffffffffffffffffffffffffffff168152602001908152602001600020819055506001600860008373ffffffffffffffffffffffffffffffffffffffff1673ffffffffffffffffffffffffffffffffffffffff1681526020019081526020016000208190555050565b600a60205282600052604060002060205281600052604060002060205280600052604060002060009250925050505481565b60011515600660003373ffffffffffffffffffffffffffffffffffffffff1673ffffffffffffffffffffffffffffffffffffffff16815260200190815260200160002060009054906101000a900460ff1615151461092d576040517f08c379a00000000000000000000000000000000000000000000000000000000081526004016109249061166b565b60405180910390fd5b600360009054906101000a900460ff1660ff16811115610982576040517f08c379a0000000000000000000000000000000000000000000000000000000008152600401610979906116fd565b60405180910390fd5b600060405180604001604052803373ffffffffffffffffffffffffffffffffffffffff168152602001600154426109b99190611500565b81525090508251600760003373ffffffffffffffffffffffffffffffffffffffff1673ffffffffffffffffffffffffffffffffffffffff1681526020019081526020016000206000828254610a0e9190611500565b9250508190555060005b8351811015610c3e57610a45848281518110610a3757610a366114a2565b5b60200260200101518461067c565b610a84576040517f08c379a0000000000000000000000000000000000000000000000000000000008152600401610a7b9061178f565b60405180910390fd5b600254848281518110610a9a57610a996114a2565b5b60200260200101511115610ae3576040517f08c379a0000000000000000000000000000000000000000000000000000000008152600401610ada906117fb565b60405180910390fd5b60015442610af19190611500565b600a60003373ffffffffffffffffffffffffffffffffffffffff1673ffffffffffffffffffffffffffffffffffffffff1681526020019081526020016000206000868481518110610b4557610b446114a2565b5b6020026020010151815260200190815260200160002060008581526020019081526020016000208190555060096000858381518110610b8757610b866114a2565b5b60200260200101518152602001908152602001600020600084815260200190815260200160002082908060018154018082558091505060019003906000526020600020906002020160009091909190915060008201518160000160006101000a81548173ffffffffffffffffffffffffffffffffffffffff021916908373ffffffffffffffffffffffffffffffffffffffff1602179055506020820151816001015550508080610c3690611534565b915050610a18565b50505050565b60015481565b600254821115610c5957600080fd5b600360009054906101000a900460ff1660ff16811115610c7857600080fd5b6000610c848383610433565b9050600054811015610ccb576040517f08c379a0000000000000000000000000000000000000000000000000000000008152600401610cc290611867565b60405180910390fd5b600060055490506000600960008681526020019081526020016000206000858152602001908152602001600020805480602002602001604051908101604052809291908181526020016000905b82821015610daa57838290600052602060002090600202016040518060400160405290816000820160009054906101000a900473ffffffffffffffffffffffffffffffffffffffff1673ffffffffffffffffffffffffffffffffffffffff1673ffffffffffffffffffffffffffffffffffffffff16815260200160018201548152505081526020019060010190610d18565b50505050905060005b8151811015610eb15742828281518110610dd057610dcf6114a2565b5b6020026020010151602001511115610e9e5760086000838381518110610df957610df86114a2565b5b60200260200101516000015173ffffffffffffffffffffffffffffffffffffffff1673ffffffffffffffffffffffffffffffffffffffff1681526020019081526020016000206000815480929190610e5090611534565b919050555082828281518110610e6957610e686114a2565b5b6020026020010151602001511015610e9d57818181518110610e8e57610e8d6114a2565b5b60200260200101516020015192505b5b8080610ea990611534565b915050610db3565b5060046000815480929190610ec590611534565b9190505550604051806080016040528085815260200186815260200160005484610eef9190611887565b815260200142815250600b60006004548152602001908152602001600020600082015181600001556020820151816001015560408201518160020155606082015181600301559050506009600086815260200190815260200160002060008581526020019081526020016000206000610f689190610f87565b5050505050565b60086020528060005260406000206000915090505481565b5080546000825560020290600052602060002090810190610fa89190610fab565b50565b5b80821115610fed57600080820160006101000a81549073ffffffffffffffffffffffffffffffffffffffff0219169055600182016000905550600201610fac565b5090565b6000604051905090565b600080fd5b600080fd5b6000819050919050565b61101881611005565b811461102357600080fd5b50565b6000813590506110358161100f565b92915050565b60006020828403121561105157611050610ffb565b5b600061105f84828501611026565b91505092915050565b61107181611005565b82525050565b600060808201905061108c6000830187611068565b6110996020830186611068565b6110a66040830185611068565b6110b36060830184611068565b95945050505050565b600073ffffffffffffffffffffffffffffffffffffffff82169050919050565b60006110e7826110bc565b9050919050565b6110f7816110dc565b811461110257600080fd5b50565b600081359050611114816110ee565b92915050565b6000602082840312156111305761112f610ffb565b5b600061113e84828501611105565b91505092915050565b60008115159050919050565b61115c81611147565b82525050565b60006020820190506111776000830184611153565b92915050565b60006020820190506111926000830184611068565b92915050565b600080604083850312156111af576111ae610ffb565b5b60006111bd85828601611026565b92505060206111ce85828601611026565b9150509250929050565b6000806000606084860312156111f1576111f0610ffb565b5b60006111ff86828701611026565b935050602061121086828701611026565b925050604061122186828701611026565b9150509250925092565b611234816110dc565b82525050565b600060408201905061124f600083018561122b565b61125c6020830184611068565b9392505050565b600060ff82169050919050565b61127981611263565b82525050565b60006020820190506112946000830184611270565b92915050565b6000806000606084860312156112b3576112b2610ffb565b5b60006112c186828701611105565b93505060206112d286828701611026565b92505060406112e386828701611026565b9150509250925092565b600080fd5b6000601f19601f8301169050919050565b7f4e487b7100000000000000000000000000000000000000000000000000000000600052604160045260246000fd5b61133b826112f2565b810181811067ffffffffffffffff8211171561135a57611359611303565b5b80604052505050565b600061136d610ff1565b90506113798282611332565b919050565b600067ffffffffffffffff82111561139957611398611303565b5b602082029050602081019050919050565b600080fd5b60006113c26113bd8461137e565b611363565b905080838252602082019050602084028301858111156113e5576113e46113aa565b5b835b8181101561140e57806113fa8882611026565b8452602084019350506020810190506113e7565b5050509392505050565b600082601f83011261142d5761142c6112ed565b5b813561143d8482602086016113af565b91505092915050565b6000806040838503121561145d5761145c610ffb565b5b600083013567ffffffffffffffff81111561147b5761147a611000565b5b61148785828601611418565b925050602061149885828601611026565b9150509250929050565b7f4e487b7100000000000000000000000000000000000000000000000000000000600052603260045260246000fd5b7f4e487b7100000000000000000000000000000000000000000000000000000000600052601160045260246000fd5b600061150b82611005565b915061151683611005565b925082820190508082111561152e5761152d6114d1565b5b92915050565b600061153f82611005565b91507fffffffffffffffffffffffffffffffffffffffffffffffffffffffffffffffff8203611571576115706114d1565b5b600182019050919050565b600082825260208201905092915050565b7f4f6e6c7920617574686f72697365642075736572732063616e20617574686f7260008201527f697365206e657720757365727300000000000000000000000000000000000000602082015250565b60006115e9602d8361157c565b91506115f48261158d565b604082019050919050565b60006020820190508181036000830152611618816115dc565b9050919050565b7f55736572206973206e6f7420617574686f726973656400000000000000000000600082015250565b600061165560168361157c565b91506116608261161f565b602082019050919050565b6000602082019050818103600083015261168481611648565b9050919050565b7f4e6f74206120636c61737369666965642074797065206f66206469736173746560008201527f722028302d352900000000000000000000000000000000000000000000000000602082015250565b60006116e760278361157c565b91506116f28261168b565b604082019050919050565b60006020820190508181036000830152611716816116da565b9050919050565b7f4164647265737320616c72656164792068617320616374697665206e6f74696660008201527f69636174696f6e206174207468697320726567696f6e2f747970650000000000602082015250565b6000611779603b8361157c565b91506117848261171d565b604082019050919050565b600060208201905081810360008301526117a88161176c565b9050919050565b7f526567696f6e206973206f757473696465206d6178696d756d2076616c756500600082015250565b60006117e5601f8361157c565b91506117f0826117af565b602082019050919050565b60006020820190508181036000830152611814816117d8565b9050919050565b7f436f6e73656e73757320686173206e6f74206265656e20726561636865640000600082015250565b6000611851601e8361157c565b915061185c8261181b565b602082019050919050565b6000602082019050818103600083015261188081611844565b9050919050565b600061189282611005565b915061189d83611005565b92508282039050818111156118b5576118b46114d1565b5b9291505056fea26469706673582212201206128cc97f434a3243bf2ba9c1469b0b207d802af58cafc81e46e39a10075d64736f6c63430008120033",
  "linkReferences": {},
  "deployedLinkReferences": {}
}