{
  "dapp_address": "0x851356ae760d987E095750cCeb3bC6014560891C",
  "_format": "hh-sol-artifact-1",
  "contractName": "SocialActivation",
  "sourceName": "contracts/SocialActivation.sol",
  "abi": [
    {
      "inputs": [],
      "stateMutability": "nonpayable",
      "type": "constructor"
    },
    {
      "inputs": [],
      "name": "MAX_REGION",
      "outputs": [
        {
          "internalType": "uint256",
          "name": "",
          "type": "uint256"
        }
      ],
      "stateMutability": "view",
      "type": "function"
    },
    {
      "inputs": [],
      "name": "MAX_TIME",
      "outputs": [
        {
          "internalType": "uint256",
          "name": "",
          "type": "uint256"
        }
      ],
      "stateMutability": "view",
      "type": "function"
    },
    {
      "inputs": [],
      "name": "NUM_DISASTER_TYPES",
      "outputs": [
        {
          "internalType": "uint8",
          "name": "",
          "type": "uint8"
        }
      ],
      "stateMutability": "view",
      "type": "function"
    },
    {
      "inputs": [],
      "name": "THRESHOLD",
      "outputs": [
        {
          "internalType": "uint256",
          "name": "",
          "type": "uint256"
        }
      ],
      "stateMutability": "view",
      "type": "function"
    },
    {
      "inputs": [],
      "name": "TIMEOUT",
      "outputs": [
        {
          "internalType": "uint256",
          "name": "",
          "type": "uint256"
        }
      ],
      "stateMutability": "view",
      "type": "function"
    },
    {
      "inputs": [
        {
          "internalType": "address",
          "name": "_new_address",
          "type": "address"
        }
      ],
      "name": "_authorise_user",
      "outputs": [],
      "stateMutability": "nonpayable",
      "type": "function"
    },
    {
      "inputs": [
        {
          "internalType": "uint256",
          "name": "_region",
          "type": "uint256"
        },
        {
          "internalType": "uint256",
          "name": "_disaster_type",
          "type": "uint256"
        }
      ],
      "name": "_check_active_notification",
      "outputs": [
        {
          "internalType": "bool",
          "name": "active",
          "type": "bool"
        }
      ],
      "stateMutability": "view",
      "type": "function"
    },
    {
      "inputs": [
        {
          "internalType": "uint256",
          "name": "_region",
          "type": "uint256"
        },
        {
          "internalType": "uint256",
          "name": "_disaster_type",
          "type": "uint256"
        }
      ],
      "name": "_confirm_consensus",
      "outputs": [],
      "stateMutability": "nonpayable",
      "type": "function"
    },
    {
      "inputs": [
        {
          "internalType": "uint256",
          "name": "_region",
          "type": "uint256"
        },
        {
          "internalType": "uint256",
          "name": "_disaster_type",
          "type": "uint256"
        }
      ],
      "name": "_count_region",
      "outputs": [
        {
          "internalType": "uint256",
          "name": "count",
          "type": "uint256"
        }
      ],
      "stateMutability": "view",
      "type": "function"
    },
    {
      "inputs": [
        {
          "internalType": "address",
          "name": "_address_to_update",
          "type": "address"
        }
      ],
      "name": "_get_rep",
      "outputs": [
        {
          "internalType": "uint256",
          "name": "rep",
          "type": "uint256"
        }
      ],
      "stateMutability": "view",
      "type": "function"
    },
    {
      "inputs": [
        {
          "internalType": "uint256[]",
          "name": "_regions",
          "type": "uint256[]"
        },
        {
          "internalType": "uint256",
          "name": "_disaster_type",
          "type": "uint256"
        }
      ],
      "name": "_new_notification",
      "outputs": [],
      "stateMutability": "nonpayable",
      "type": "function"
    },
    {
      "inputs": [
        {
          "internalType": "uint256",
          "name": "",
          "type": "uint256"
        }
      ],
      "name": "disasters_confirmed",
      "outputs": [
        {
          "internalType": "uint256",
          "name": "disaster_type",
          "type": "uint256"
        },
        {
          "internalType": "uint256",
          "name": "region",
          "type": "uint256"
        },
        {
          "internalType": "uint256",
          "name": "time_of_first_notification",
          "type": "uint256"
        },
        {
          "internalType": "uint256",
          "name": "time_of_consensus",
          "type": "uint256"
        }
      ],
      "stateMutability": "view",
      "type": "function"
    },
    {
      "inputs": [
        {
          "internalType": "address",
          "name": "",
          "type": "address"
        }
      ],
      "name": "get_authorised",
      "outputs": [
        {
          "internalType": "bool",
          "name": "",
          "type": "bool"
        }
      ],
      "stateMutability": "view",
      "type": "function"
    },
    {
      "inputs": [
        {
          "internalType": "address",
          "name": "",
          "type": "address"
        }
      ],
      "name": "num_correct_notifications",
      "outputs": [
        {
          "internalType": "uint256",
          "name": "",
          "type": "uint256"
        }
      ],
      "stateMutability": "view",
      "type": "function"
    },
    {
      "inputs": [],
      "name": "num_disasters",
      "outputs": [
        {
          "internalType": "uint256",
          "name": "",
          "type": "uint256"
        }
      ],
      "stateMutability": "view",
      "type": "function"
    },
    {
      "inputs": [
        {
          "internalType": "address",
          "name": "",
          "type": "address"
        }
      ],
      "name": "num_notifications",
      "outputs": [
        {
          "internalType": "uint256",
          "name": "",
          "type": "uint256"
        }
      ],
      "stateMutability": "view",
      "type": "function"
    },
    {
      "inputs": [
        {
          "internalType": "uint256",
          "name": "",
          "type": "uint256"
        },
        {
          "internalType": "uint256",
          "name": "",
          "type": "uint256"
        },
        {
          "internalType": "uint256",
          "name": "",
          "type": "uint256"
        }
      ],
      "name": "region_to_type_count",
      "outputs": [
        {
          "internalType": "address",
          "name": "creator",
          "type": "address"
        },
        {
          "internalType": "uint256",
          "name": "times_out",
          "type": "uint256"
        }
      ],
      "stateMutability": "view",
      "type": "function"
    },
    {
      "inputs": [
        {
          "internalType": "address",
          "name": "",
          "type": "address"
        },
        {
          "internalType": "uint256",
          "name": "",
          "type": "uint256"
        },
        {
          "internalType": "uint256",
          "name": "",
          "type": "uint256"
        }
      ],
      "name": "user_to_timestamp",
      "outputs": [
        {
          "internalType": "uint256",
          "name": "",
          "type": "uint256"
        }
      ],
      "stateMutability": "view",
      "type": "function"
    }
  ],
  "bytecode": "0x608060405260036000556103e860015561fd206002556005600360006101000a81548160ff021916908360ff1602179055506509184e729fff60055534801561004757600080fd5b506001600660003373ffffffffffffffffffffffffffffffffffffffff1673ffffffffffffffffffffffffffffffffffffffff16815260200190815260200160002060006101000a81548160ff0219169083151502179055506001600760003373ffffffffffffffffffffffffffffffffffffffff1673ffffffffffffffffffffffffffffffffffffffff168152602001908152602001600020819055506001600860003373ffffffffffffffffffffffffffffffffffffffff1673ffffffffffffffffffffffffffffffffffffffff168152602001908152602001600020819055506119f0806101396000396000f3fe608060405234801561001057600080fd5b50600436106101165760003560e01c80639c8e3d63116100a2578063d0562bc411610071578063d0562bc414610321578063e7f41c6f14610351578063f56f48f21461036d578063f5a1ad281461038b578063fc580e4a146103a757610116565b80639c8e3d6314610287578063a17ab5f5146102b7578063af118728146102e7578063cc09253f1461030557610116565b806348428db6116100e957806348428db6146101ba578063681b8268146101ea5780636b923cd81461021b578063785ffb371461023957806393b48ead1461025757610116565b8063018771e41461011b57806305bac2ed1461014e578063269499841461017e57806332d665b91461019c575b600080fd5b610135600480360381019061013091906110ce565b6103d7565b604051610145949392919061110a565b60405180910390f35b610168600480360381019061016391906111ad565b610407565b60405161017591906111f5565b60405180910390f35b610186610427565b6040516101939190611210565b60405180910390f35b6101a461042d565b6040516101b19190611210565b60405180910390f35b6101d460048036038101906101cf919061122b565b610433565b6040516101e19190611210565b60405180910390f35b61020460048036038101906101ff919061126b565b610594565b6040516102129291906112cd565b60405180910390f35b610223610602565b6040516102309190611312565b60405180910390f35b610241610615565b60405161024e9190611210565b60405180910390f35b610271600480360381019061026c91906111ad565b61061b565b60405161027e9190611210565b60405180910390f35b6102a1600480360381019061029c91906111ad565b610633565b6040516102ae9190611210565b60405180910390f35b6102d160048036038101906102cc919061122b565b61067c565b6040516102de91906111f5565b60405180910390f35b6102ef6106ea565b6040516102fc9190611210565b60405180910390f35b61031f600480360381019061031a91906111ad565b6106f0565b005b61033b6004803603810190610336919061132d565b6108fb565b6040516103489190611210565b60405180910390f35b61036b600480360381019061036691906114d9565b61092d565b005b610375610cd7565b6040516103829190611210565b60405180910390f35b6103a560048036038101906103a0919061122b565b610cdd565b005b6103c160048036038101906103bc91906111ad565b611002565b6040516103ce9190611210565b60405180910390f35b600b6020528060005260406000206000915090508060000154908060010154908060020154908060030154905084565b60066020528060005260406000206000915054906101000a900460ff1681565b60055481565b60025481565b600080600960008581526020019081526020016000206000848152602001908152602001600020805480602002602001604051908101604052809291908181526020016000905b8282101561050c57838290600052602060002090600202016040518060400160405290816000820160009054906101000a900473ffffffffffffffffffffffffffffffffffffffff1673ffffffffffffffffffffffffffffffffffffffff1673ffffffffffffffffffffffffffffffffffffffff1681526020016001820154815250508152602001906001019061047a565b50505050905060005b815181101561058c574282828151811061053257610531611535565b5b60200260200101516020015111156105795761056b82828151811061055a57610559611535565b5b602002602001015160000151610633565b836105769190611593565b92505b8080610584906115c7565b915050610515565b505092915050565b600960205282600052604060002060205281600052604060002081815481106105bc57600080fd5b906000526020600020906002020160009250925050508060000160009054906101000a900473ffffffffffffffffffffffffffffffffffffffff16908060010154905082565b600360009054906101000a900460ff1681565b60005481565b60076020528060005260406000206000915090505481565b6000600860008373ffffffffffffffffffffffffffffffffffffffff1673ffffffffffffffffffffffffffffffffffffffff168152602001908152602001600020549050919050565b600042600a60003373ffffffffffffffffffffffffffffffffffffffff1673ffffffffffffffffffffffffffffffffffffffff168152602001908152602001600020600085815260200190815260200160002060008481526020019081526020016000205410905092915050565b60045481565b60011515600660003373ffffffffffffffffffffffffffffffffffffffff1673ffffffffffffffffffffffffffffffffffffffff16815260200190815260200160002060009054906101000a900460ff16151514610783576040517f08c379a000000000000000000000000000000000000000000000000000000000815260040161077a90611692565b60405180910390fd5b60001515600660008373ffffffffffffffffffffffffffffffffffffffff1673ffffffffffffffffffffffffffffffffffffffff16815260200190815260200160002060009054906101000a900460ff16151514610816576040517f08c379a000000000000000000000000000000000000000000000000000000000815260040161080d906116fe565b60405180910390fd5b6001600660008373ffffffffffffffffffffffffffffffffffffffff1673ffffffffffffffffffffffffffffffffffffffff16815260200190815260200160002060006101000a81548160ff0219169083151502179055506001600760008373ffffffffffffffffffffffffffffffffffffffff1673ffffffffffffffffffffffffffffffffffffffff168152602001908152602001600020819055506001600860008373ffffffffffffffffffffffffffffffffffffffff1673ffffffffffffffffffffffffffffffffffffffff1681526020019081526020016000208190555050565b600a60205282600052604060002060205281600052604060002060205280600052604060002060009250925050505481565b60011515600660003373ffffffffffffffffffffffffffffffffffffffff1673ffffffffffffffffffffffffffffffffffffffff16815260200190815260200160002060009054906101000a900460ff161515146109c0576040517f08c379a00000000000000000000000000000000000000000000000000000000081526004016109b79061176a565b60405180910390fd5b600360009054906101000a900460ff1660ff16811115610a15576040517f08c379a0000000000000000000000000000000000000000000000000000000008152600401610a0c906117fc565b60405180910390fd5b600060405180604001604052803373ffffffffffffffffffffffffffffffffffffffff16815260200160015442610a4c9190611593565b81525090508251600760003373ffffffffffffffffffffffffffffffffffffffff1673ffffffffffffffffffffffffffffffffffffffff1681526020019081526020016000206000828254610aa19190611593565b9250508190555060005b8351811015610cd157610ad8848281518110610aca57610ac9611535565b5b60200260200101518461067c565b610b17576040517f08c379a0000000000000000000000000000000000000000000000000000000008152600401610b0e9061188e565b60405180910390fd5b600254848281518110610b2d57610b2c611535565b5b60200260200101511115610b76576040517f08c379a0000000000000000000000000000000000000000000000000000000008152600401610b6d906118fa565b60405180910390fd5b60015442610b849190611593565b600a60003373ffffffffffffffffffffffffffffffffffffffff1673ffffffffffffffffffffffffffffffffffffffff1681526020019081526020016000206000868481518110610bd857610bd7611535565b5b6020026020010151815260200190815260200160002060008581526020019081526020016000208190555060096000858381518110610c1a57610c19611535565b5b60200260200101518152602001908152602001600020600084815260200190815260200160002082908060018154018082558091505060019003906000526020600020906002020160009091909190915060008201518160000160006101000a81548173ffffffffffffffffffffffffffffffffffffffff021916908373ffffffffffffffffffffffffffffffffffffffff1602179055506020820151816001015550508080610cc9906115c7565b915050610aab565b50505050565b60015481565b600254821115610cec57600080fd5b600360009054906101000a900460ff1660ff16811115610d0b57600080fd5b6000610d178383610433565b9050600054811015610d5e576040517f08c379a0000000000000000000000000000000000000000000000000000000008152600401610d5590611966565b60405180910390fd5b600060055490506000600960008681526020019081526020016000206000858152602001908152602001600020805480602002602001604051908101604052809291908181526020016000905b82821015610e3d57838290600052602060002090600202016040518060400160405290816000820160009054906101000a900473ffffffffffffffffffffffffffffffffffffffff1673ffffffffffffffffffffffffffffffffffffffff1673ffffffffffffffffffffffffffffffffffffffff16815260200160018201548152505081526020019060010190610dab565b50505050905060005b8151811015610f445742828281518110610e6357610e62611535565b5b6020026020010151602001511115610f315760086000838381518110610e8c57610e8b611535565b5b60200260200101516000015173ffffffffffffffffffffffffffffffffffffffff1673ffffffffffffffffffffffffffffffffffffffff1681526020019081526020016000206000815480929190610ee3906115c7565b919050555082828281518110610efc57610efb611535565b5b6020026020010151602001511015610f3057818181518110610f2157610f20611535565b5b60200260200101516020015192505b5b8080610f3c906115c7565b915050610e46565b5060046000815480929190610f58906115c7565b9190505550604051806080016040528085815260200186815260200160005484610f829190611986565b815260200142815250600b60006004548152602001908152602001600020600082015181600001556020820151816001015560408201518160020155606082015181600301559050506009600086815260200190815260200160002060008581526020019081526020016000206000610ffb919061101a565b5050505050565b60086020528060005260406000206000915090505481565b508054600082556002029060005260206000209081019061103b919061103e565b50565b5b8082111561108057600080820160006101000a81549073ffffffffffffffffffffffffffffffffffffffff021916905560018201600090555060020161103f565b5090565b6000604051905090565b600080fd5b600080fd5b6000819050919050565b6110ab81611098565b81146110b657600080fd5b50565b6000813590506110c8816110a2565b92915050565b6000602082840312156110e4576110e361108e565b5b60006110f2848285016110b9565b91505092915050565b61110481611098565b82525050565b600060808201905061111f60008301876110fb565b61112c60208301866110fb565b61113960408301856110fb565b61114660608301846110fb565b95945050505050565b600073ffffffffffffffffffffffffffffffffffffffff82169050919050565b600061117a8261114f565b9050919050565b61118a8161116f565b811461119557600080fd5b50565b6000813590506111a781611181565b92915050565b6000602082840312156111c3576111c261108e565b5b60006111d184828501611198565b91505092915050565b60008115159050919050565b6111ef816111da565b82525050565b600060208201905061120a60008301846111e6565b92915050565b600060208201905061122560008301846110fb565b92915050565b600080604083850312156112425761124161108e565b5b6000611250858286016110b9565b9250506020611261858286016110b9565b9150509250929050565b6000806000606084860312156112845761128361108e565b5b6000611292868287016110b9565b93505060206112a3868287016110b9565b92505060406112b4868287016110b9565b9150509250925092565b6112c78161116f565b82525050565b60006040820190506112e260008301856112be565b6112ef60208301846110fb565b9392505050565b600060ff82169050919050565b61130c816112f6565b82525050565b60006020820190506113276000830184611303565b92915050565b6000806000606084860312156113465761134561108e565b5b600061135486828701611198565b9350506020611365868287016110b9565b9250506040611376868287016110b9565b9150509250925092565b600080fd5b6000601f19601f8301169050919050565b7f4e487b7100000000000000000000000000000000000000000000000000000000600052604160045260246000fd5b6113ce82611385565b810181811067ffffffffffffffff821117156113ed576113ec611396565b5b80604052505050565b6000611400611084565b905061140c82826113c5565b919050565b600067ffffffffffffffff82111561142c5761142b611396565b5b602082029050602081019050919050565b600080fd5b600061145561145084611411565b6113f6565b905080838252602082019050602084028301858111156114785761147761143d565b5b835b818110156114a1578061148d88826110b9565b84526020840193505060208101905061147a565b5050509392505050565b600082601f8301126114c0576114bf611380565b5b81356114d0848260208601611442565b91505092915050565b600080604083850312156114f0576114ef61108e565b5b600083013567ffffffffffffffff81111561150e5761150d611093565b5b61151a858286016114ab565b925050602061152b858286016110b9565b9150509250929050565b7f4e487b7100000000000000000000000000000000000000000000000000000000600052603260045260246000fd5b7f4e487b7100000000000000000000000000000000000000000000000000000000600052601160045260246000fd5b600061159e82611098565b91506115a983611098565b92508282019050808211156115c1576115c0611564565b5b92915050565b60006115d282611098565b91507fffffffffffffffffffffffffffffffffffffffffffffffffffffffffffffffff820361160457611603611564565b5b600182019050919050565b600082825260208201905092915050565b7f4f6e6c7920617574686f72697365642075736572732063616e20617574686f7260008201527f697365206e657720757365727300000000000000000000000000000000000000602082015250565b600061167c602d8361160f565b915061168782611620565b604082019050919050565b600060208201905081810360008301526116ab8161166f565b9050919050565b7f4e6577207573657220697320616c726561647920617574686f72697365640000600082015250565b60006116e8601e8361160f565b91506116f3826116b2565b602082019050919050565b60006020820190508181036000830152611717816116db565b9050919050565b7f55736572206973206e6f7420617574686f726973656400000000000000000000600082015250565b600061175460168361160f565b915061175f8261171e565b602082019050919050565b6000602082019050818103600083015261178381611747565b9050919050565b7f4e6f74206120636c61737369666965642074797065206f66206469736173746560008201527f722028302d352900000000000000000000000000000000000000000000000000602082015250565b60006117e660278361160f565b91506117f18261178a565b604082019050919050565b60006020820190508181036000830152611815816117d9565b9050919050565b7f4164647265737320616c72656164792068617320616374697665206e6f74696660008201527f69636174696f6e206174207468697320726567696f6e2f747970650000000000602082015250565b6000611878603b8361160f565b91506118838261181c565b604082019050919050565b600060208201905081810360008301526118a78161186b565b9050919050565b7f526567696f6e206973206f757473696465206d6178696d756d2076616c756500600082015250565b60006118e4601f8361160f565b91506118ef826118ae565b602082019050919050565b60006020820190508181036000830152611913816118d7565b9050919050565b7f436f6e73656e73757320686173206e6f74206265656e20726561636865640000600082015250565b6000611950601e8361160f565b915061195b8261191a565b602082019050919050565b6000602082019050818103600083015261197f81611943565b9050919050565b600061199182611098565b915061199c83611098565b92508282039050818111156119b4576119b3611564565b5b9291505056fea2646970667358221220e87bb6e0796357a90e8ab0f80ac17d4352752249646c01ec3d20ad16a273d54664736f6c63430008120033",
  "linkReferences": {},
  "deployedLinkReferences": {}
}